{
  "_format": "hh3-artifact-1",
  "contractName": "PayrollManager",
  "sourceName": "contracts/PayrollManager.sol",
  "abi": [
    {
      "inputs": [],
      "stateMutability": "nonpayable",
      "type": "constructor"
    },
    {
      "anonymous": false,
      "inputs": [
        {
          "indexed": true,
          "internalType": "address",
          "name": "admin",
          "type": "address"
        },
        {
          "indexed": false,
          "internalType": "bool",
          "name": "enabled",
          "type": "bool"
        }
      ],
      "name": "AdminUpdated",
      "type": "event"
    },
    {
      "anonymous": false,
      "inputs": [
        {
          "indexed": true,
          "internalType": "address",
          "name": "token",
          "type": "address"
        },
        {
          "indexed": false,
          "internalType": "uint256",
          "name": "amount",
          "type": "uint256"
        },
        {
          "indexed": false,
          "internalType": "string",
          "name": "note",
          "type": "string"
        }
      ],
      "name": "FundsMovedToYield",
      "type": "event"
    },
    {
      "anonymous": false,
      "inputs": [
        {
          "indexed": true,
          "internalType": "address",
          "name": "token",
          "type": "address"
        },
        {
          "indexed": false,
          "internalType": "uint256",
          "name": "amount",
          "type": "uint256"
        },
        {
          "indexed": false,
          "internalType": "string",
          "name": "note",
          "type": "string"
        }
      ],
      "name": "FundsRecalledFromYield",
      "type": "event"
    },
    {
      "anonymous": false,
      "inputs": [
        {
          "indexed": true,
          "internalType": "address",
          "name": "by",
          "type": "address"
        }
      ],
      "name": "Paused",
      "type": "event"
    },
    {
      "anonymous": false,
      "inputs": [
        {
          "indexed": true,
          "internalType": "uint256",
          "name": "id",
          "type": "uint256"
        },
        {
          "indexed": true,
          "internalType": "address",
          "name": "recipient",
          "type": "address"
        },
        {
          "indexed": false,
          "internalType": "uint256",
          "name": "amount",
          "type": "uint256"
        }
      ],
      "name": "PaymentExecuted",
      "type": "event"
    },
    {
      "anonymous": false,
      "inputs": [
        {
          "indexed": true,
          "internalType": "address",
          "name": "payer",
          "type": "address"
        },
        {
          "indexed": true,
          "internalType": "address",
          "name": "recipient",
          "type": "address"
        },
        {
          "indexed": false,
          "internalType": "uint256",
          "name": "amount",
          "type": "uint256"
        },
        {
          "indexed": true,
          "internalType": "address",
          "name": "token",
          "type": "address"
        },
        {
          "indexed": false,
          "internalType": "uint256",
          "name": "chainId",
          "type": "uint256"
        }
      ],
      "name": "PaymentScheduled",
      "type": "event"
    },
    {
      "anonymous": false,
      "inputs": [
        {
          "indexed": true,
          "internalType": "address",
          "name": "by",
          "type": "address"
        }
      ],
      "name": "Unpaused",
      "type": "event"
    },
    {
      "inputs": [
        {
          "internalType": "address",
          "name": "_admin",
          "type": "address"
        }
      ],
      "name": "addAdmin",
      "outputs": [],
      "stateMutability": "nonpayable",
      "type": "function"
    },
    {
      "inputs": [
        {
          "internalType": "address",
          "name": "_token",
          "type": "address"
        },
        {
          "internalType": "address",
          "name": "_to",
          "type": "address"
        },
        {
          "internalType": "uint256",
          "name": "_amount",
          "type": "uint256"
        }
      ],
      "name": "emergencyWithdraw",
      "outputs": [],
      "stateMutability": "nonpayable",
      "type": "function"
    },
    {
      "inputs": [
        {
          "internalType": "uint256",
          "name": "_id",
          "type": "uint256"
        }
      ],
      "name": "executePayment",
      "outputs": [],
      "stateMutability": "nonpayable",
      "type": "function"
    },
    {
      "inputs": [
        {
          "internalType": "address",
          "name": "_token",
          "type": "address"
        }
      ],
      "name": "getBalance",
      "outputs": [
        {
          "internalType": "uint256",
          "name": "",
          "type": "uint256"
        }
      ],
      "stateMutability": "view",
      "type": "function"
    },
    {
      "inputs": [],
      "name": "getPaymentsCount",
      "outputs": [
        {
          "internalType": "uint256",
          "name": "",
          "type": "uint256"
        }
      ],
      "stateMutability": "view",
      "type": "function"
    },
    {
      "inputs": [
        {
          "internalType": "address",
          "name": "",
          "type": "address"
        }
      ],
      "name": "isAdmin",
      "outputs": [
        {
          "internalType": "bool",
          "name": "",
          "type": "bool"
        }
      ],
      "stateMutability": "view",
      "type": "function"
    },
    {
      "inputs": [
        {
          "internalType": "address",
          "name": "_token",
          "type": "address"
        },
        {
          "internalType": "address",
          "name": "_yieldWallet",
          "type": "address"
        },
        {
          "internalType": "uint256",
          "name": "_amount",
          "type": "uint256"
        },
        {
          "internalType": "string",
          "name": "_note",
          "type": "string"
        }
      ],
      "name": "moveFundsToYield",
      "outputs": [],
      "stateMutability": "nonpayable",
      "type": "function"
    },
    {
      "inputs": [],
      "name": "owner",
      "outputs": [
        {
          "internalType": "address",
          "name": "",
          "type": "address"
        }
      ],
      "stateMutability": "view",
      "type": "function"
    },
    {
      "inputs": [],
      "name": "pause",
      "outputs": [],
      "stateMutability": "nonpayable",
      "type": "function"
    },
    {
      "inputs": [],
      "name": "paused",
      "outputs": [
        {
          "internalType": "bool",
          "name": "",
          "type": "bool"
        }
      ],
      "stateMutability": "view",
      "type": "function"
    },
    {
      "inputs": [
        {
          "internalType": "uint256",
          "name": "",
          "type": "uint256"
        }
      ],
      "name": "payments",
      "outputs": [
        {
          "internalType": "address",
          "name": "payer",
          "type": "address"
        },
        {
          "internalType": "address",
          "name": "recipient",
          "type": "address"
        },
        {
          "internalType": "address",
          "name": "token",
          "type": "address"
        },
        {
          "internalType": "uint256",
          "name": "amount",
          "type": "uint256"
        },
        {
          "internalType": "uint256",
          "name": "chainId",
          "type": "uint256"
        },
        {
          "internalType": "bool",
          "name": "executed",
          "type": "bool"
        }
      ],
      "stateMutability": "view",
      "type": "function"
    },
    {
      "inputs": [
        {
          "internalType": "address",
          "name": "_token",
          "type": "address"
        },
        {
          "internalType": "uint256",
          "name": "_amount",
          "type": "uint256"
        },
        {
          "internalType": "string",
          "name": "_note",
          "type": "string"
        }
      ],
      "name": "recallFundsFromYield",
      "outputs": [],
      "stateMutability": "nonpayable",
      "type": "function"
    },
    {
      "inputs": [
        {
          "internalType": "address",
          "name": "_admin",
          "type": "address"
        }
      ],
      "name": "removeAdmin",
      "outputs": [],
      "stateMutability": "nonpayable",
      "type": "function"
    },
    {
      "inputs": [
        {
          "internalType": "address",
          "name": "_recipient",
          "type": "address"
        },
        {
          "internalType": "address",
          "name": "_token",
          "type": "address"
        },
        {
          "internalType": "uint256",
          "name": "_amount",
          "type": "uint256"
        },
        {
          "internalType": "uint256",
          "name": "_chainId",
          "type": "uint256"
        }
      ],
      "name": "schedulePayment",
      "outputs": [],
      "stateMutability": "nonpayable",
      "type": "function"
    },
    {
      "inputs": [],
      "name": "totalEscrowed",
      "outputs": [
        {
          "internalType": "uint256",
          "name": "",
          "type": "uint256"
        }
      ],
      "stateMutability": "view",
      "type": "function"
    },
    {
      "inputs": [],
      "name": "unpause",
      "outputs": [],
      "stateMutability": "nonpayable",
      "type": "function"
    }
  ],
  "bytecode": "0x60a060405234801561000f575f5ffd5b503373ffffffffffffffffffffffffffffffffffffffff1660808173ffffffffffffffffffffffffffffffffffffffff1681525050600160035f3373ffffffffffffffffffffffffffffffffffffffff1673ffffffffffffffffffffffffffffffffffffffff1681526020019081526020015f205f6101000a81548160ff0219169083151502179055506080516120ab6100c65f395f818161056101528181610dcd01528181611427015261145701526120ab5ff3fe608060405234801561000f575f5ffd5b50600436106100fe575f3560e01c80638456cb5911610095578063cacf1e0e11610064578063cacf1e0e1461025f578063e63ea4081461027d578063f8b2cb4f14610299578063f9168231146102c9576100fe565b80638456cb59146101e657806387d81789146101f057806388691176146102255780638da5cb5b14610241576100fe565b80635c975abb116100d15780635c975abb146101745780635d72725a1461019257806362d778ae146101ae57806370480275146101ca576100fe565b8063162a0cf8146101025780631785f53c1461011e57806324d7806c1461013a5780633f4ba83a1461016a575b5f5ffd5b61011c60048036038101906101179190611693565b6102e7565b005b61013860048036038101906101339190611718565b61055f565b005b610154600480360381019061014f9190611718565b61071b565b604051610161919061175d565b60405180910390f35b610172610738565b005b61017c61081e565b604051610189919061175d565b60405180910390f35b6101ac60048036038101906101a791906117d7565b61082f565b005b6101c860048036038101906101c39190611848565b610a1e565b005b6101e460048036038101906101df9190611718565b610dcb565b005b6101ee610f6e565b005b61020a60048036038101906102059190611693565b611055565b60405161021c969594939291906118ca565b60405180910390f35b61023f600480360381019061023a9190611929565b611105565b005b610249611425565b60405161025691906119ad565b60405180910390f35b610267611449565b60405161027491906119c6565b60405180910390f35b610297600480360381019061029291906119df565b611455565b005b6102b360048036038101906102ae9190611718565b6115d2565b6040516102c091906119c6565b60405180910390f35b6102d1611652565b6040516102de91906119c6565b60405180910390f35b5f5f9054906101000a900460ff1615610335576040517f08c379a000000000000000000000000000000000000000000000000000000000815260040161032c90611a89565b60405180910390fd5b600180549050811061037c576040517f08c379a000000000000000000000000000000000000000000000000000000000815260040161037390611af1565b60405180910390fd5b5f6001828154811061039157610390611b0f565b5b905f5260205f2090600602019050806005015f9054906101000a900460ff16156103f0576040517f08c379a00000000000000000000000000000000000000000000000000000000081526004016103e790611b86565b60405180910390fd5b6001816005015f6101000a81548160ff021916908315150217905550806003015460025f8282540392505081905550806002015f9054906101000a900473ffffffffffffffffffffffffffffffffffffffff1673ffffffffffffffffffffffffffffffffffffffff1663a9059cbb826001015f9054906101000a900473ffffffffffffffffffffffffffffffffffffffff1683600301546040518363ffffffff1660e01b81526004016104a4929190611ba4565b6020604051808303815f875af11580156104c0573d5f5f3e3d5ffd5b505050506040513d601f19601f820116820180604052508101906104e49190611bf5565b50806001015f9054906101000a900473ffffffffffffffffffffffffffffffffffffffff1673ffffffffffffffffffffffffffffffffffffffff16827f7f5bfe3018715b26a7067888a5c42912fbb3485170b8154ea9a448661f2f0de2836003015460405161055391906119c6565b60405180910390a35050565b7f000000000000000000000000000000000000000000000000000000000000000073ffffffffffffffffffffffffffffffffffffffff163373ffffffffffffffffffffffffffffffffffffffff16146105ed576040517f08c379a00000000000000000000000000000000000000000000000000000000081526004016105e490611c6a565b60405180910390fd5b60035f8273ffffffffffffffffffffffffffffffffffffffff1673ffffffffffffffffffffffffffffffffffffffff1681526020019081526020015f205f9054906101000a900460ff16610676576040517f08c379a000000000000000000000000000000000000000000000000000000000815260040161066d90611cd2565b60405180910390fd5b5f60035f8373ffffffffffffffffffffffffffffffffffffffff1673ffffffffffffffffffffffffffffffffffffffff1681526020019081526020015f205f6101000a81548160ff0219169083151502179055508073ffffffffffffffffffffffffffffffffffffffff167f235bc17e7930760029e9f4d860a2a8089976de5b381cf8380fc11c1d88a111335f604051610710919061175d565b60405180910390a250565b6003602052805f5260405f205f915054906101000a900460ff1681565b60035f3373ffffffffffffffffffffffffffffffffffffffff1673ffffffffffffffffffffffffffffffffffffffff1681526020019081526020015f205f9054906101000a900460ff166107c1576040517f08c379a00000000000000000000000000000000000000000000000000000000081526004016107b890611cd2565b60405180910390fd5b5f5f5f6101000a81548160ff0219169083151502179055503373ffffffffffffffffffffffffffffffffffffffff167f5db9ee0a495bf2e6ff9c91a7834c1ba4fdd244a5e8aa4e537bd38aeae4b073aa60405160405180910390a2565b5f5f9054906101000a900460ff1681565b60035f3373ffffffffffffffffffffffffffffffffffffffff1673ffffffffffffffffffffffffffffffffffffffff1681526020019081526020015f205f9054906101000a900460ff166108b8576040517f08c379a00000000000000000000000000000000000000000000000000000000081526004016108af90611cd2565b60405180910390fd5b5f5f9054906101000a900460ff1615610906576040517f08c379a00000000000000000000000000000000000000000000000000000000081526004016108fd90611a89565b60405180910390fd5b5f8311610948576040517f08c379a000000000000000000000000000000000000000000000000000000000815260040161093f90611d3a565b60405180910390fd5b8373ffffffffffffffffffffffffffffffffffffffff166323b872dd3330866040518463ffffffff1660e01b815260040161098593929190611d58565b6020604051808303815f875af11580156109a1573d5f5f3e3d5ffd5b505050506040513d601f19601f820116820180604052508101906109c59190611bf5565b508373ffffffffffffffffffffffffffffffffffffffff167fc4734cf4dd57c82c1e0e710a48a2b3967d2c5a8a7397bae5bbe2663c819dfd29848484604051610a1093929190611dd7565b60405180910390a250505050565b5f5f9054906101000a900460ff1615610a6c576040517f08c379a0000000000000000000000000000000000000000000000000000000008152600401610a6390611a89565b60405180910390fd5b5f73ffffffffffffffffffffffffffffffffffffffff168473ffffffffffffffffffffffffffffffffffffffff1603610ada576040517f08c379a0000000000000000000000000000000000000000000000000000000008152600401610ad190611e51565b60405180910390fd5b5f8211610b1c576040517f08c379a0000000000000000000000000000000000000000000000000000000008152600401610b1390611d3a565b60405180910390fd5b8273ffffffffffffffffffffffffffffffffffffffff166323b872dd3330856040518463ffffffff1660e01b8152600401610b5993929190611d58565b6020604051808303815f875af1158015610b75573d5f5f3e3d5ffd5b505050506040513d601f19601f82011682018060405250810190610b999190611bf5565b5060016040518060c001604052803373ffffffffffffffffffffffffffffffffffffffff1681526020018673ffffffffffffffffffffffffffffffffffffffff1681526020018573ffffffffffffffffffffffffffffffffffffffff1681526020018481526020018381526020015f1515815250908060018154018082558091505060019003905f5260205f2090600602015f909190919091505f820151815f015f6101000a81548173ffffffffffffffffffffffffffffffffffffffff021916908373ffffffffffffffffffffffffffffffffffffffff1602179055506020820151816001015f6101000a81548173ffffffffffffffffffffffffffffffffffffffff021916908373ffffffffffffffffffffffffffffffffffffffff1602179055506040820151816002015f6101000a81548173ffffffffffffffffffffffffffffffffffffffff021916908373ffffffffffffffffffffffffffffffffffffffff160217905550606082015181600301556080820151816004015560a0820151816005015f6101000a81548160ff02191690831515021790555050508160025f82825401925050819055508273ffffffffffffffffffffffffffffffffffffffff168473ffffffffffffffffffffffffffffffffffffffff163373ffffffffffffffffffffffffffffffffffffffff167fc51b1a49ed1ee87fb7cedb71d39aebabf50a6263f63e1d35df0a7b6547d38f198585604051610dbd929190611e6f565b60405180910390a450505050565b7f000000000000000000000000000000000000000000000000000000000000000073ffffffffffffffffffffffffffffffffffffffff163373ffffffffffffffffffffffffffffffffffffffff1614610e59576040517f08c379a0000000000000000000000000000000000000000000000000000000008152600401610e5090611c6a565b60405180910390fd5b5f73ffffffffffffffffffffffffffffffffffffffff168173ffffffffffffffffffffffffffffffffffffffff1603610ec7576040517f08c379a0000000000000000000000000000000000000000000000000000000008152600401610ebe90611ee0565b60405180910390fd5b600160035f8373ffffffffffffffffffffffffffffffffffffffff1673ffffffffffffffffffffffffffffffffffffffff1681526020019081526020015f205f6101000a81548160ff0219169083151502179055508073ffffffffffffffffffffffffffffffffffffffff167f235bc17e7930760029e9f4d860a2a8089976de5b381cf8380fc11c1d88a111336001604051610f63919061175d565b60405180910390a250565b60035f3373ffffffffffffffffffffffffffffffffffffffff1673ffffffffffffffffffffffffffffffffffffffff1681526020019081526020015f205f9054906101000a900460ff16610ff7576040517f08c379a0000000000000000000000000000000000000000000000000000000008152600401610fee90611cd2565b60405180910390fd5b60015f5f6101000a81548160ff0219169083151502179055503373ffffffffffffffffffffffffffffffffffffffff167f62e78cea01bee320cd4e420270b5ea74000d11b0c9f74754ebdbfc544b05a25860405160405180910390a2565b60018181548110611064575f80fd5b905f5260205f2090600602015f91509050805f015f9054906101000a900473ffffffffffffffffffffffffffffffffffffffff1690806001015f9054906101000a900473ffffffffffffffffffffffffffffffffffffffff1690806002015f9054906101000a900473ffffffffffffffffffffffffffffffffffffffff1690806003015490806004015490806005015f9054906101000a900460ff16905086565b60035f3373ffffffffffffffffffffffffffffffffffffffff1673ffffffffffffffffffffffffffffffffffffffff1681526020019081526020015f205f9054906101000a900460ff1661118e576040517f08c379a000000000000000000000000000000000000000000000000000000000815260040161118590611cd2565b60405180910390fd5b5f5f9054906101000a900460ff16156111dc576040517f08c379a00000000000000000000000000000000000000000000000000000000081526004016111d390611a89565b60405180910390fd5b5f73ffffffffffffffffffffffffffffffffffffffff168473ffffffffffffffffffffffffffffffffffffffff160361124a576040517f08c379a000000000000000000000000000000000000000000000000000000000815260040161124190611f48565b60405180910390fd5b5f831161128c576040517f08c379a000000000000000000000000000000000000000000000000000000000815260040161128390611d3a565b60405180910390fd5b5f8590505f8173ffffffffffffffffffffffffffffffffffffffff166370a08231306040518263ffffffff1660e01b81526004016112ca91906119ad565b602060405180830381865afa1580156112e5573d5f5f3e3d5ffd5b505050506040513d601f19601f820116820180604052508101906113099190611f7a565b90508481101561134e576040517f08c379a000000000000000000000000000000000000000000000000000000000815260040161134590611fef565b60405180910390fd5b8173ffffffffffffffffffffffffffffffffffffffff1663a9059cbb87876040518363ffffffff1660e01b8152600401611389929190611ba4565b6020604051808303815f875af11580156113a5573d5f5f3e3d5ffd5b505050506040513d601f19601f820116820180604052508101906113c99190611bf5565b508673ffffffffffffffffffffffffffffffffffffffff167f086d007541a16726a770d9cb404d89f6b36c424acfbd11be3711eb212bd4ab9486868660405161141493929190611dd7565b60405180910390a250505050505050565b7f000000000000000000000000000000000000000000000000000000000000000081565b5f600180549050905090565b7f000000000000000000000000000000000000000000000000000000000000000073ffffffffffffffffffffffffffffffffffffffff163373ffffffffffffffffffffffffffffffffffffffff16146114e3576040517f08c379a00000000000000000000000000000000000000000000000000000000081526004016114da90611c6a565b60405180910390fd5b5f73ffffffffffffffffffffffffffffffffffffffff168273ffffffffffffffffffffffffffffffffffffffff1603611551576040517f08c379a000000000000000000000000000000000000000000000000000000000815260040161154890612057565b60405180910390fd5b8273ffffffffffffffffffffffffffffffffffffffff1663a9059cbb83836040518363ffffffff1660e01b815260040161158c929190611ba4565b6020604051808303815f875af11580156115a8573d5f5f3e3d5ffd5b505050506040513d601f19601f820116820180604052508101906115cc9190611bf5565b50505050565b5f8173ffffffffffffffffffffffffffffffffffffffff166370a08231306040518263ffffffff1660e01b815260040161160c91906119ad565b602060405180830381865afa158015611627573d5f5f3e3d5ffd5b505050506040513d601f19601f8201168201806040525081019061164b9190611f7a565b9050919050565b60025481565b5f5ffd5b5f5ffd5b5f819050919050565b61167281611660565b811461167c575f5ffd5b50565b5f8135905061168d81611669565b92915050565b5f602082840312156116a8576116a7611658565b5b5f6116b58482850161167f565b91505092915050565b5f73ffffffffffffffffffffffffffffffffffffffff82169050919050565b5f6116e7826116be565b9050919050565b6116f7816116dd565b8114611701575f5ffd5b50565b5f81359050611712816116ee565b92915050565b5f6020828403121561172d5761172c611658565b5b5f61173a84828501611704565b91505092915050565b5f8115159050919050565b61175781611743565b82525050565b5f6020820190506117705f83018461174e565b92915050565b5f5ffd5b5f5ffd5b5f5ffd5b5f5f83601f84011261179757611796611776565b5b8235905067ffffffffffffffff8111156117b4576117b361177a565b5b6020830191508360018202830111156117d0576117cf61177e565b5b9250929050565b5f5f5f5f606085870312156117ef576117ee611658565b5b5f6117fc87828801611704565b945050602061180d8782880161167f565b935050604085013567ffffffffffffffff81111561182e5761182d61165c565b5b61183a87828801611782565b925092505092959194509250565b5f5f5f5f608085870312156118605761185f611658565b5b5f61186d87828801611704565b945050602061187e87828801611704565b935050604061188f8782880161167f565b92505060606118a08782880161167f565b91505092959194509250565b6118b5816116dd565b82525050565b6118c481611660565b82525050565b5f60c0820190506118dd5f8301896118ac565b6118ea60208301886118ac565b6118f760408301876118ac565b61190460608301866118bb565b61191160808301856118bb565b61191e60a083018461174e565b979650505050505050565b5f5f5f5f5f6080868803121561194257611941611658565b5b5f61194f88828901611704565b955050602061196088828901611704565b94505060406119718882890161167f565b935050606086013567ffffffffffffffff8111156119925761199161165c565b5b61199e88828901611782565b92509250509295509295909350565b5f6020820190506119c05f8301846118ac565b92915050565b5f6020820190506119d95f8301846118bb565b92915050565b5f5f5f606084860312156119f6576119f5611658565b5b5f611a0386828701611704565b9350506020611a1486828701611704565b9250506040611a258682870161167f565b9150509250925092565b5f82825260208201905092915050565b7f50617573656400000000000000000000000000000000000000000000000000005f82015250565b5f611a73600683611a2f565b9150611a7e82611a3f565b602082019050919050565b5f6020820190508181035f830152611aa081611a67565b9050919050565b7f496e76616c6964204944000000000000000000000000000000000000000000005f82015250565b5f611adb600a83611a2f565b9150611ae682611aa7565b602082019050919050565b5f6020820190508181035f830152611b0881611acf565b9050919050565b7f4e487b71000000000000000000000000000000000000000000000000000000005f52603260045260245ffd5b7f416c7265616479206578656375746564000000000000000000000000000000005f82015250565b5f611b70601083611a2f565b9150611b7b82611b3c565b602082019050919050565b5f6020820190508181035f830152611b9d81611b64565b9050919050565b5f604082019050611bb75f8301856118ac565b611bc460208301846118bb565b9392505050565b611bd481611743565b8114611bde575f5ffd5b50565b5f81519050611bef81611bcb565b92915050565b5f60208284031215611c0a57611c09611658565b5b5f611c1784828501611be1565b91505092915050565b7f4e6f74206f776e657200000000000000000000000000000000000000000000005f82015250565b5f611c54600983611a2f565b9150611c5f82611c20565b602082019050919050565b5f6020820190508181035f830152611c8181611c48565b9050919050565b7f4e6f742061646d696e00000000000000000000000000000000000000000000005f82015250565b5f611cbc600983611a2f565b9150611cc782611c88565b602082019050919050565b5f6020820190508181035f830152611ce981611cb0565b9050919050565b7f5a65726f20616d6f756e740000000000000000000000000000000000000000005f82015250565b5f611d24600b83611a2f565b9150611d2f82611cf0565b602082019050919050565b5f6020820190508181035f830152611d5181611d18565b9050919050565b5f606082019050611d6b5f8301866118ac565b611d7860208301856118ac565b611d8560408301846118bb565b949350505050565b828183375f83830152505050565b5f601f19601f8301169050919050565b5f611db68385611a2f565b9350611dc3838584611d8d565b611dcc83611d9b565b840190509392505050565b5f604082019050611dea5f8301866118bb565b8181036020830152611dfd818486611dab565b9050949350505050565b7f496e76616c696420726563697069656e740000000000000000000000000000005f82015250565b5f611e3b601183611a2f565b9150611e4682611e07565b602082019050919050565b5f6020820190508181035f830152611e6881611e2f565b9050919050565b5f604082019050611e825f8301856118bb565b611e8f60208301846118bb565b9392505050565b7f5a65726f206164647265737300000000000000000000000000000000000000005f82015250565b5f611eca600c83611a2f565b9150611ed582611e96565b602082019050919050565b5f6020820190508181035f830152611ef781611ebe565b9050919050565b7f496e76616c69642077616c6c65740000000000000000000000000000000000005f82015250565b5f611f32600e83611a2f565b9150611f3d82611efe565b602082019050919050565b5f6020820190508181035f830152611f5f81611f26565b9050919050565b5f81519050611f7481611669565b92915050565b5f60208284031215611f8f57611f8e611658565b5b5f611f9c84828501611f66565b91505092915050565b7f496e73756666696369656e742062616c616e63650000000000000000000000005f82015250565b5f611fd9601483611a2f565b9150611fe482611fa5565b602082019050919050565b5f6020820190508181035f83015261200681611fcd565b9050919050565b7f496e76616c6964206164647265737300000000000000000000000000000000005f82015250565b5f612041600f83611a2f565b915061204c8261200d565b602082019050919050565b5f6020820190508181035f83015261206e81612035565b905091905056fea26469706673582212201da6351d9963a25736f3f0ef648d65a4d995019d8913097beffd0cb436df5e1664736f6c634300081c0033",
  "linkReferences": {},
  "deployedLinkReferences": {},
  "immutableReferences": {
    "326": [
      {
        "length": 32,
        "start": 1377
      },
      {
        "length": 32,
        "start": 3533
      },
      {
        "length": 32,
        "start": 5159
      },
      {
        "length": 32,
        "start": 5207
      }
    ]
  },
  "inputSourceName": "project/contracts/PayrollManager.sol",
  "buildInfoId": "solc-0_8_28-954af9f60fb0990253a9ac1008850730fc36080c"
}