{
  "_format": "hh3-artifact-1",
  "contractName": "PayrollManager",
  "sourceName": "contracts/PayrollManager.sol",
  "abi": [
    {
      "inputs": [],
      "stateMutability": "nonpayable",
      "type": "constructor"
    },
    {
      "anonymous": false,
      "inputs": [
        {
          "indexed": true,
          "internalType": "address",
          "name": "admin",
          "type": "address"
        },
        {
          "indexed": false,
          "internalType": "bool",
          "name": "enabled",
          "type": "bool"
        }
      ],
      "name": "AdminUpdated",
      "type": "event"
    },
    {
      "anonymous": false,
      "inputs": [
        {
          "indexed": true,
          "internalType": "address",
          "name": "token",
          "type": "address"
        },
        {
          "indexed": false,
          "internalType": "uint256",
          "name": "amount",
          "type": "uint256"
        },
        {
          "indexed": false,
          "internalType": "string",
          "name": "note",
          "type": "string"
        }
      ],
      "name": "FundsMovedToYield",
      "type": "event"
    },
    {
      "anonymous": false,
      "inputs": [
        {
          "indexed": true,
          "internalType": "address",
          "name": "token",
          "type": "address"
        },
        {
          "indexed": false,
          "internalType": "uint256",
          "name": "amount",
          "type": "uint256"
        },
        {
          "indexed": false,
          "internalType": "string",
          "name": "note",
          "type": "string"
        }
      ],
      "name": "FundsRecalledFromYield",
      "type": "event"
    },
    {
      "anonymous": false,
      "inputs": [
        {
          "indexed": true,
          "internalType": "address",
          "name": "by",
          "type": "address"
        }
      ],
      "name": "Paused",
      "type": "event"
    },
    {
      "anonymous": false,
      "inputs": [
        {
          "indexed": true,
          "internalType": "uint256",
          "name": "id",
          "type": "uint256"
        },
        {
          "indexed": true,
          "internalType": "address",
          "name": "recipient",
          "type": "address"
        },
        {
          "indexed": false,
          "internalType": "uint256",
          "name": "amount",
          "type": "uint256"
        },
        {
          "indexed": false,
          "internalType": "address",
          "name": "token",
          "type": "address"
        }
      ],
      "name": "PaymentExecuted",
      "type": "event"
    },
    {
      "anonymous": false,
      "inputs": [
        {
          "indexed": true,
          "internalType": "uint256",
          "name": "id",
          "type": "uint256"
        },
        {
          "indexed": true,
          "internalType": "address",
          "name": "payer",
          "type": "address"
        },
        {
          "indexed": true,
          "internalType": "address",
          "name": "recipient",
          "type": "address"
        },
        {
          "indexed": false,
          "internalType": "uint256",
          "name": "amount",
          "type": "uint256"
        },
        {
          "indexed": false,
          "internalType": "address",
          "name": "token",
          "type": "address"
        },
        {
          "indexed": false,
          "internalType": "uint256",
          "name": "chainId",
          "type": "uint256"
        }
      ],
      "name": "PaymentScheduled",
      "type": "event"
    },
    {
      "anonymous": false,
      "inputs": [
        {
          "indexed": true,
          "internalType": "address",
          "name": "by",
          "type": "address"
        }
      ],
      "name": "Unpaused",
      "type": "event"
    },
    {
      "inputs": [
        {
          "internalType": "address",
          "name": "_admin",
          "type": "address"
        }
      ],
      "name": "addAdmin",
      "outputs": [],
      "stateMutability": "nonpayable",
      "type": "function"
    },
    {
      "inputs": [
        {
          "internalType": "address",
          "name": "_token",
          "type": "address"
        },
        {
          "internalType": "address",
          "name": "_to",
          "type": "address"
        },
        {
          "internalType": "uint256",
          "name": "_amount",
          "type": "uint256"
        }
      ],
      "name": "emergencyWithdraw",
      "outputs": [],
      "stateMutability": "nonpayable",
      "type": "function"
    },
    {
      "inputs": [
        {
          "internalType": "uint256",
          "name": "_id",
          "type": "uint256"
        }
      ],
      "name": "executePayment",
      "outputs": [],
      "stateMutability": "nonpayable",
      "type": "function"
    },
    {
      "inputs": [
        {
          "internalType": "address",
          "name": "_token",
          "type": "address"
        }
      ],
      "name": "getBalance",
      "outputs": [
        {
          "internalType": "uint256",
          "name": "",
          "type": "uint256"
        }
      ],
      "stateMutability": "view",
      "type": "function"
    },
    {
      "inputs": [],
      "name": "getPaymentsCount",
      "outputs": [
        {
          "internalType": "uint256",
          "name": "",
          "type": "uint256"
        }
      ],
      "stateMutability": "view",
      "type": "function"
    },
    {
      "inputs": [
        {
          "internalType": "address",
          "name": "",
          "type": "address"
        }
      ],
      "name": "isAdmin",
      "outputs": [
        {
          "internalType": "bool",
          "name": "",
          "type": "bool"
        }
      ],
      "stateMutability": "view",
      "type": "function"
    },
    {
      "inputs": [
        {
          "internalType": "address",
          "name": "_token",
          "type": "address"
        },
        {
          "internalType": "address",
          "name": "_yieldWallet",
          "type": "address"
        },
        {
          "internalType": "uint256",
          "name": "_amount",
          "type": "uint256"
        },
        {
          "internalType": "string",
          "name": "_note",
          "type": "string"
        }
      ],
      "name": "moveFundsToYield",
      "outputs": [],
      "stateMutability": "nonpayable",
      "type": "function"
    },
    {
      "inputs": [],
      "name": "owner",
      "outputs": [
        {
          "internalType": "address",
          "name": "",
          "type": "address"
        }
      ],
      "stateMutability": "view",
      "type": "function"
    },
    {
      "inputs": [],
      "name": "pause",
      "outputs": [],
      "stateMutability": "nonpayable",
      "type": "function"
    },
    {
      "inputs": [],
      "name": "paused",
      "outputs": [
        {
          "internalType": "bool",
          "name": "",
          "type": "bool"
        }
      ],
      "stateMutability": "view",
      "type": "function"
    },
    {
      "inputs": [
        {
          "internalType": "uint256",
          "name": "",
          "type": "uint256"
        }
      ],
      "name": "payments",
      "outputs": [
        {
          "internalType": "address",
          "name": "payer",
          "type": "address"
        },
        {
          "internalType": "address",
          "name": "recipient",
          "type": "address"
        },
        {
          "internalType": "address",
          "name": "token",
          "type": "address"
        },
        {
          "internalType": "uint256",
          "name": "amount",
          "type": "uint256"
        },
        {
          "internalType": "uint256",
          "name": "chainId",
          "type": "uint256"
        },
        {
          "internalType": "bool",
          "name": "executed",
          "type": "bool"
        }
      ],
      "stateMutability": "view",
      "type": "function"
    },
    {
      "inputs": [
        {
          "internalType": "address",
          "name": "_token",
          "type": "address"
        },
        {
          "internalType": "uint256",
          "name": "_amount",
          "type": "uint256"
        },
        {
          "internalType": "string",
          "name": "_note",
          "type": "string"
        }
      ],
      "name": "recallFundsFromYield",
      "outputs": [],
      "stateMutability": "payable",
      "type": "function"
    },
    {
      "inputs": [
        {
          "internalType": "address",
          "name": "_admin",
          "type": "address"
        }
      ],
      "name": "removeAdmin",
      "outputs": [],
      "stateMutability": "nonpayable",
      "type": "function"
    },
    {
      "inputs": [
        {
          "internalType": "address[]",
          "name": "_recipients",
          "type": "address[]"
        },
        {
          "internalType": "address[]",
          "name": "_tokens",
          "type": "address[]"
        },
        {
          "internalType": "uint256[]",
          "name": "_amounts",
          "type": "uint256[]"
        },
        {
          "internalType": "uint256[]",
          "name": "_chainIds",
          "type": "uint256[]"
        }
      ],
      "name": "schedulePayments",
      "outputs": [],
      "stateMutability": "payable",
      "type": "function"
    },
    {
      "inputs": [],
      "name": "totalEscrowed",
      "outputs": [
        {
          "internalType": "uint256",
          "name": "",
          "type": "uint256"
        }
      ],
      "stateMutability": "view",
      "type": "function"
    },
    {
      "inputs": [],
      "name": "unpause",
      "outputs": [],
      "stateMutability": "nonpayable",
      "type": "function"
    },
    {
      "stateMutability": "payable",
      "type": "receive"
    }
  ],
  "bytecode": "0x60a060405234801561000f575f5ffd5b503373ffffffffffffffffffffffffffffffffffffffff1660808173ffffffffffffffffffffffffffffffffffffffff1681525050600160035f3373ffffffffffffffffffffffffffffffffffffffff1673ffffffffffffffffffffffffffffffffffffffff1681526020019081526020015f205f6101000a81548160ff021916908315150217905550608051612eb36100c65f395f8181610e7d015281816113b701528181611b360152611b660152612eb35ff3fe6080604052600436106100f6575f3560e01c80638456cb5911610089578063cacf1e0e11610058578063cacf1e0e146102d6578063e63ea40814610300578063f8b2cb4f14610328578063f916823114610364576100fd565b80638456cb591461022d57806387d817891461024357806388691176146102845780638da5cb5b146102ac576100fd565b80633f4ba83a116100c55780633f4ba83a146101a95780635c975abb146101bf5780635d72725a146101e95780637048027514610205576100fd565b80630a91d3c914610101578063162a0cf81461011d5780631785f53c1461014557806324d7806c1461016d576100fd565b366100fd57005b5f5ffd5b61011b60048036038101906101169190611f43565b61038e565b005b348015610128575f5ffd5b50610143600480360381019061013e919061205a565b610a19565b005b348015610150575f5ffd5b5061016b600480360381019061016691906120df565b610e7b565b005b348015610178575f5ffd5b50610193600480360381019061018e91906120df565b611037565b6040516101a09190612124565b60405180910390f35b3480156101b4575f5ffd5b506101bd611054565b005b3480156101ca575f5ffd5b506101d361113a565b6040516101e09190612124565b60405180910390f35b61020360048036038101906101fe9190612192565b61114b565b005b348015610210575f5ffd5b5061022b600480360381019061022691906120df565b6113b5565b005b348015610238575f5ffd5b50610241611558565b005b34801561024e575f5ffd5b506102696004803603810190610264919061205a565b61163f565b60405161027b96959493929190612221565b60405180910390f35b34801561028f575f5ffd5b506102aa60048036038101906102a59190612280565b6116ef565b005b3480156102b7575f5ffd5b506102c0611b34565b6040516102cd9190612304565b60405180910390f35b3480156102e1575f5ffd5b506102ea611b58565b6040516102f7919061231d565b60405180910390f35b34801561030b575f5ffd5b5061032660048036038101906103219190612336565b611b64565b005b348015610333575f5ffd5b5061034e600480360381019061034991906120df565b611dc3565b60405161035b919061231d565b60405180910390f35b34801561036f575f5ffd5b50610378611e7f565b604051610385919061231d565b60405180910390f35b5f5f9054906101000a900460ff16156103dc576040517f08c379a00000000000000000000000000000000000000000000000000000000081526004016103d3906123e0565b60405180910390fd5b5f88889050905086869050811480156103f757508484905081145b801561040557508282905081145b610444576040517f08c379a000000000000000000000000000000000000000000000000000000000815260040161043b90612448565b60405180910390fd5b5f8111610486576040517f08c379a000000000000000000000000000000000000000000000000000000000815260040161047d906124b0565b60405180910390fd5b5f5f90505f5f90505b82811015610526575f73ffffffffffffffffffffffffffffffffffffffff168989838181106104c1576104c06124ce565b5b90506020020160208101906104d691906120df565b73ffffffffffffffffffffffffffffffffffffffff160361051957868682818110610504576105036124ce565b5b90506020020135826105169190612528565b91505b808060010191505061048f565b50803414610569576040517f08c379a0000000000000000000000000000000000000000000000000000000008152600401610560906125a5565b60405180910390fd5b5f5f90505b82811015610a0c575f89898381811061058a576105896124ce565b5b905060200201602081019061059f91906120df565b90505f8888848181106105b5576105b46124ce565b5b9050602002013590505f73ffffffffffffffffffffffffffffffffffffffff168d8d858181106105e8576105e76124ce565b5b90506020020160208101906105fd91906120df565b73ffffffffffffffffffffffffffffffffffffffff1603610653576040517f08c379a000000000000000000000000000000000000000000000000000000000815260040161064a9061260d565b60405180910390fd5b5f8111610695576040517f08c379a000000000000000000000000000000000000000000000000000000000815260040161068c90612675565b60405180910390fd5b5f73ffffffffffffffffffffffffffffffffffffffff168273ffffffffffffffffffffffffffffffffffffffff160315610748578173ffffffffffffffffffffffffffffffffffffffff166323b872dd3330846040518463ffffffff1660e01b815260040161070693929190612693565b6020604051808303815f875af1158015610722573d5f5f3e3d5ffd5b505050506040513d601f19601f8201168201806040525081019061074691906126f2565b505b60016040518060c001604052803373ffffffffffffffffffffffffffffffffffffffff1681526020018f8f87818110610784576107836124ce565b5b905060200201602081019061079991906120df565b73ffffffffffffffffffffffffffffffffffffffff1681526020018473ffffffffffffffffffffffffffffffffffffffff1681526020018381526020018989878181106107e9576107e86124ce565b5b9050602002013581526020015f1515815250908060018154018082558091505060019003905f5260205f2090600602015f909190919091505f820151815f015f6101000a81548173ffffffffffffffffffffffffffffffffffffffff021916908373ffffffffffffffffffffffffffffffffffffffff1602179055506020820151816001015f6101000a81548173ffffffffffffffffffffffffffffffffffffffff021916908373ffffffffffffffffffffffffffffffffffffffff1602179055506040820151816002015f6101000a81548173ffffffffffffffffffffffffffffffffffffffff021916908373ffffffffffffffffffffffffffffffffffffffff160217905550606082015181600301556080820151816004015560a0820151816005015f6101000a81548160ff02191690831515021790555050505f60018080549050610938919061271d565b90508160025f82825461094b9190612528565b925050819055508d8d85818110610965576109646124ce565b5b905060200201602081019061097a91906120df565b73ffffffffffffffffffffffffffffffffffffffff163373ffffffffffffffffffffffffffffffffffffffff16827f59216ac30e8373bef90caec8ee7c59b9844f6ec976adc7e645878e3acada827085878d8d8b8181106109de576109dd6124ce565b5b905060200201356040516109f493929190612750565b60405180910390a4505050808060010191505061056e565b5050505050505050505050565b5f5f9054906101000a900460ff1615610a67576040517f08c379a0000000000000000000000000000000000000000000000000000000008152600401610a5e906123e0565b60405180910390fd5b6001805490508110610aae576040517f08c379a0000000000000000000000000000000000000000000000000000000008152600401610aa5906127cf565b60405180910390fd5b5f60018281548110610ac357610ac26124ce565b5b905f5260205f2090600602019050806005015f9054906101000a900460ff1615610b22576040517f08c379a0000000000000000000000000000000000000000000000000000000008152600401610b1990612837565b60405180910390fd5b805f015f9054906101000a900473ffffffffffffffffffffffffffffffffffffffff1673ffffffffffffffffffffffffffffffffffffffff163373ffffffffffffffffffffffffffffffffffffffff1614610bb2576040517f08c379a0000000000000000000000000000000000000000000000000000000008152600401610ba99061289f565b60405180910390fd5b6001816005015f6101000a81548160ff021916908315150217905550806003015460025f828254610be3919061271d565b925050819055505f73ffffffffffffffffffffffffffffffffffffffff16816002015f9054906101000a900473ffffffffffffffffffffffffffffffffffffffff1673ffffffffffffffffffffffffffffffffffffffff1603610d15575f816001015f9054906101000a900473ffffffffffffffffffffffffffffffffffffffff1673ffffffffffffffffffffffffffffffffffffffff168260030154604051610c8c906128ea565b5f6040518083038185875af1925050503d805f8114610cc6576040519150601f19603f3d011682016040523d82523d5f602084013e610ccb565b606091505b5050905080610d0f576040517f08c379a0000000000000000000000000000000000000000000000000000000008152600401610d0690612948565b60405180910390fd5b50610ddc565b806002015f9054906101000a900473ffffffffffffffffffffffffffffffffffffffff1673ffffffffffffffffffffffffffffffffffffffff1663a9059cbb826001015f9054906101000a900473ffffffffffffffffffffffffffffffffffffffff1683600301546040518363ffffffff1660e01b8152600401610d9a929190612966565b6020604051808303815f875af1158015610db6573d5f5f3e3d5ffd5b505050506040513d601f19601f82011682018060405250810190610dda91906126f2565b505b806001015f9054906101000a900473ffffffffffffffffffffffffffffffffffffffff1673ffffffffffffffffffffffffffffffffffffffff16827f354f3c0c8efabe1a1a07cf222842b008ef284ac185e63bdf8245be8cd2d97f518360030154846002015f9054906101000a900473ffffffffffffffffffffffffffffffffffffffff16604051610e6f92919061298d565b60405180910390a35050565b7f000000000000000000000000000000000000000000000000000000000000000073ffffffffffffffffffffffffffffffffffffffff163373ffffffffffffffffffffffffffffffffffffffff1614610f09576040517f08c379a0000000000000000000000000000000000000000000000000000000008152600401610f00906129fe565b60405180910390fd5b60035f8273ffffffffffffffffffffffffffffffffffffffff1673ffffffffffffffffffffffffffffffffffffffff1681526020019081526020015f205f9054906101000a900460ff16610f92576040517f08c379a0000000000000000000000000000000000000000000000000000000008152600401610f8990612a66565b60405180910390fd5b5f60035f8373ffffffffffffffffffffffffffffffffffffffff1673ffffffffffffffffffffffffffffffffffffffff1681526020019081526020015f205f6101000a81548160ff0219169083151502179055508073ffffffffffffffffffffffffffffffffffffffff167f235bc17e7930760029e9f4d860a2a8089976de5b381cf8380fc11c1d88a111335f60405161102c9190612124565b60405180910390a250565b6003602052805f5260405f205f915054906101000a900460ff1681565b60035f3373ffffffffffffffffffffffffffffffffffffffff1673ffffffffffffffffffffffffffffffffffffffff1681526020019081526020015f205f9054906101000a900460ff166110dd576040517f08c379a00000000000000000000000000000000000000000000000000000000081526004016110d490612a66565b60405180910390fd5b5f5f5f6101000a81548160ff0219169083151502179055503373ffffffffffffffffffffffffffffffffffffffff167f5db9ee0a495bf2e6ff9c91a7834c1ba4fdd244a5e8aa4e537bd38aeae4b073aa60405160405180910390a2565b5f5f9054906101000a900460ff1681565b60035f3373ffffffffffffffffffffffffffffffffffffffff1673ffffffffffffffffffffffffffffffffffffffff1681526020019081526020015f205f9054906101000a900460ff166111d4576040517f08c379a00000000000000000000000000000000000000000000000000000000081526004016111cb90612a66565b60405180910390fd5b5f5f9054906101000a900460ff1615611222576040517f08c379a0000000000000000000000000000000000000000000000000000000008152600401611219906123e0565b60405180910390fd5b5f8311611264576040517f08c379a000000000000000000000000000000000000000000000000000000000815260040161125b90612675565b60405180910390fd5b5f73ffffffffffffffffffffffffffffffffffffffff168473ffffffffffffffffffffffffffffffffffffffff16036112de578234146112d9576040517f08c379a00000000000000000000000000000000000000000000000000000000081526004016112d090612ace565b60405180910390fd5b61135d565b8373ffffffffffffffffffffffffffffffffffffffff166323b872dd3330866040518463ffffffff1660e01b815260040161131b93929190612693565b6020604051808303815f875af1158015611337573d5f5f3e3d5ffd5b505050506040513d601f19601f8201168201806040525081019061135b91906126f2565b505b8373ffffffffffffffffffffffffffffffffffffffff167fc4734cf4dd57c82c1e0e710a48a2b3967d2c5a8a7397bae5bbe2663c819dfd298484846040516113a793929190612b36565b60405180910390a250505050565b7f000000000000000000000000000000000000000000000000000000000000000073ffffffffffffffffffffffffffffffffffffffff163373ffffffffffffffffffffffffffffffffffffffff1614611443576040517f08c379a000000000000000000000000000000000000000000000000000000000815260040161143a906129fe565b60405180910390fd5b5f73ffffffffffffffffffffffffffffffffffffffff168173ffffffffffffffffffffffffffffffffffffffff16036114b1576040517f08c379a00000000000000000000000000000000000000000000000000000000081526004016114a890612bb0565b60405180910390fd5b600160035f8373ffffffffffffffffffffffffffffffffffffffff1673ffffffffffffffffffffffffffffffffffffffff1681526020019081526020015f205f6101000a81548160ff0219169083151502179055508073ffffffffffffffffffffffffffffffffffffffff167f235bc17e7930760029e9f4d860a2a8089976de5b381cf8380fc11c1d88a11133600160405161154d9190612124565b60405180910390a250565b60035f3373ffffffffffffffffffffffffffffffffffffffff1673ffffffffffffffffffffffffffffffffffffffff1681526020019081526020015f205f9054906101000a900460ff166115e1576040517f08c379a00000000000000000000000000000000000000000000000000000000081526004016115d890612a66565b60405180910390fd5b60015f5f6101000a81548160ff0219169083151502179055503373ffffffffffffffffffffffffffffffffffffffff167f62e78cea01bee320cd4e420270b5ea74000d11b0c9f74754ebdbfc544b05a25860405160405180910390a2565b6001818154811061164e575f80fd5b905f5260205f2090600602015f91509050805f015f9054906101000a900473ffffffffffffffffffffffffffffffffffffffff1690806001015f9054906101000a900473ffffffffffffffffffffffffffffffffffffffff1690806002015f9054906101000a900473ffffffffffffffffffffffffffffffffffffffff1690806003015490806004015490806005015f9054906101000a900460ff16905086565b60035f3373ffffffffffffffffffffffffffffffffffffffff1673ffffffffffffffffffffffffffffffffffffffff1681526020019081526020015f205f9054906101000a900460ff16611778576040517f08c379a000000000000000000000000000000000000000000000000000000000815260040161176f90612a66565b60405180910390fd5b5f5f9054906101000a900460ff16156117c6576040517f08c379a00000000000000000000000000000000000000000000000000000000081526004016117bd906123e0565b60405180910390fd5b5f73ffffffffffffffffffffffffffffffffffffffff168473ffffffffffffffffffffffffffffffffffffffff1603611834576040517f08c379a000000000000000000000000000000000000000000000000000000000815260040161182b90612c18565b60405180910390fd5b5f8311611876576040517f08c379a000000000000000000000000000000000000000000000000000000000815260040161186d90612675565b60405180910390fd5b5f73ffffffffffffffffffffffffffffffffffffffff168573ffffffffffffffffffffffffffffffffffffffff160361199a57824710156118ec576040517f08c379a00000000000000000000000000000000000000000000000000000000081526004016118e390612c80565b60405180910390fd5b5f8473ffffffffffffffffffffffffffffffffffffffff1684604051611911906128ea565b5f6040518083038185875af1925050503d805f811461194b576040519150601f19603f3d011682016040523d82523d5f602084013e611950565b606091505b5050905080611994576040517f08c379a000000000000000000000000000000000000000000000000000000000815260040161198b90612ce8565b60405180910390fd5b50611adb565b5f8590505f8173ffffffffffffffffffffffffffffffffffffffff166370a08231306040518263ffffffff1660e01b81526004016119d89190612304565b602060405180830381865afa1580156119f3573d5f5f3e3d5ffd5b505050506040513d601f19601f82011682018060405250810190611a179190612d1a565b905084811015611a5c576040517f08c379a0000000000000000000000000000000000000000000000000000000008152600401611a5390612d8f565b60405180910390fd5b8173ffffffffffffffffffffffffffffffffffffffff1663a9059cbb87876040518363ffffffff1660e01b8152600401611a97929190612966565b6020604051808303815f875af1158015611ab3573d5f5f3e3d5ffd5b505050506040513d601f19601f82011682018060405250810190611ad791906126f2565b5050505b8473ffffffffffffffffffffffffffffffffffffffff167f086d007541a16726a770d9cb404d89f6b36c424acfbd11be3711eb212bd4ab94848484604051611b2593929190612b36565b60405180910390a25050505050565b7f000000000000000000000000000000000000000000000000000000000000000081565b5f600180549050905090565b7f000000000000000000000000000000000000000000000000000000000000000073ffffffffffffffffffffffffffffffffffffffff163373ffffffffffffffffffffffffffffffffffffffff1614611bf2576040517f08c379a0000000000000000000000000000000000000000000000000000000008152600401611be9906129fe565b60405180910390fd5b5f73ffffffffffffffffffffffffffffffffffffffff168273ffffffffffffffffffffffffffffffffffffffff1603611c60576040517f08c379a0000000000000000000000000000000000000000000000000000000008152600401611c5790612df7565b60405180910390fd5b5f73ffffffffffffffffffffffffffffffffffffffff168373ffffffffffffffffffffffffffffffffffffffff1603611d41575f8273ffffffffffffffffffffffffffffffffffffffff1682604051611cb8906128ea565b5f6040518083038185875af1925050503d805f8114611cf2576040519150601f19603f3d011682016040523d82523d5f602084013e611cf7565b606091505b5050905080611d3b576040517f08c379a0000000000000000000000000000000000000000000000000000000008152600401611d3290612e5f565b60405180910390fd5b50611dbe565b8273ffffffffffffffffffffffffffffffffffffffff1663a9059cbb83836040518363ffffffff1660e01b8152600401611d7c929190612966565b6020604051808303815f875af1158015611d98573d5f5f3e3d5ffd5b505050506040513d601f19601f82011682018060405250810190611dbc91906126f2565b505b505050565b5f5f73ffffffffffffffffffffffffffffffffffffffff168273ffffffffffffffffffffffffffffffffffffffff1603611dff57479050611e7a565b8173ffffffffffffffffffffffffffffffffffffffff166370a08231306040518263ffffffff1660e01b8152600401611e389190612304565b602060405180830381865afa158015611e53573d5f5f3e3d5ffd5b505050506040513d601f19601f82011682018060405250810190611e779190612d1a565b90505b919050565b60025481565b5f5ffd5b5f5ffd5b5f5ffd5b5f5ffd5b5f5ffd5b5f5f83601f840112611eae57611ead611e8d565b5b8235905067ffffffffffffffff811115611ecb57611eca611e91565b5b602083019150836020820283011115611ee757611ee6611e95565b5b9250929050565b5f5f83601f840112611f0357611f02611e8d565b5b8235905067ffffffffffffffff811115611f2057611f1f611e91565b5b602083019150836020820283011115611f3c57611f3b611e95565b5b9250929050565b5f5f5f5f5f5f5f5f6080898b031215611f5f57611f5e611e85565b5b5f89013567ffffffffffffffff811115611f7c57611f7b611e89565b5b611f888b828c01611e99565b9850985050602089013567ffffffffffffffff811115611fab57611faa611e89565b5b611fb78b828c01611e99565b9650965050604089013567ffffffffffffffff811115611fda57611fd9611e89565b5b611fe68b828c01611eee565b9450945050606089013567ffffffffffffffff81111561200957612008611e89565b5b6120158b828c01611eee565b92509250509295985092959890939650565b5f819050919050565b61203981612027565b8114612043575f5ffd5b50565b5f8135905061205481612030565b92915050565b5f6020828403121561206f5761206e611e85565b5b5f61207c84828501612046565b91505092915050565b5f73ffffffffffffffffffffffffffffffffffffffff82169050919050565b5f6120ae82612085565b9050919050565b6120be816120a4565b81146120c8575f5ffd5b50565b5f813590506120d9816120b5565b92915050565b5f602082840312156120f4576120f3611e85565b5b5f612101848285016120cb565b91505092915050565b5f8115159050919050565b61211e8161210a565b82525050565b5f6020820190506121375f830184612115565b92915050565b5f5f83601f84011261215257612151611e8d565b5b8235905067ffffffffffffffff81111561216f5761216e611e91565b5b60208301915083600182028301111561218b5761218a611e95565b5b9250929050565b5f5f5f5f606085870312156121aa576121a9611e85565b5b5f6121b7878288016120cb565b94505060206121c887828801612046565b935050604085013567ffffffffffffffff8111156121e9576121e8611e89565b5b6121f58782880161213d565b925092505092959194509250565b61220c816120a4565b82525050565b61221b81612027565b82525050565b5f60c0820190506122345f830189612203565b6122416020830188612203565b61224e6040830187612203565b61225b6060830186612212565b6122686080830185612212565b61227560a0830184612115565b979650505050505050565b5f5f5f5f5f6080868803121561229957612298611e85565b5b5f6122a6888289016120cb565b95505060206122b7888289016120cb565b94505060406122c888828901612046565b935050606086013567ffffffffffffffff8111156122e9576122e8611e89565b5b6122f58882890161213d565b92509250509295509295909350565b5f6020820190506123175f830184612203565b92915050565b5f6020820190506123305f830184612212565b92915050565b5f5f5f6060848603121561234d5761234c611e85565b5b5f61235a868287016120cb565b935050602061236b868287016120cb565b925050604061237c86828701612046565b9150509250925092565b5f82825260208201905092915050565b7f50617573656400000000000000000000000000000000000000000000000000005f82015250565b5f6123ca600683612386565b91506123d582612396565b602082019050919050565b5f6020820190508181035f8301526123f7816123be565b9050919050565b7f4172726179206c656e677468206d69736d6174636800000000000000000000005f82015250565b5f612432601583612386565b915061243d826123fe565b602082019050919050565b5f6020820190508181035f83015261245f81612426565b9050919050565b7f4e6f207061796d656e74730000000000000000000000000000000000000000005f82015250565b5f61249a600b83612386565b91506124a582612466565b602082019050919050565b5f6020820190508181035f8301526124c78161248e565b9050919050565b7f4e487b71000000000000000000000000000000000000000000000000000000005f52603260045260245ffd5b7f4e487b71000000000000000000000000000000000000000000000000000000005f52601160045260245ffd5b5f61253282612027565b915061253d83612027565b9250828201905080821115612555576125546124fb565b5b92915050565b7f496e636f7272656374206e617469766520746f6b656e20616d6f756e740000005f82015250565b5f61258f601d83612386565b915061259a8261255b565b602082019050919050565b5f6020820190508181035f8301526125bc81612583565b9050919050565b7f496e76616c696420726563697069656e740000000000000000000000000000005f82015250565b5f6125f7601183612386565b9150612602826125c3565b602082019050919050565b5f6020820190508181035f830152612624816125eb565b9050919050565b7f5a65726f20616d6f756e740000000000000000000000000000000000000000005f82015250565b5f61265f600b83612386565b915061266a8261262b565b602082019050919050565b5f6020820190508181035f83015261268c81612653565b9050919050565b5f6060820190506126a65f830186612203565b6126b36020830185612203565b6126c06040830184612212565b949350505050565b6126d18161210a565b81146126db575f5ffd5b50565b5f815190506126ec816126c8565b92915050565b5f6020828403121561270757612706611e85565b5b5f612714848285016126de565b91505092915050565b5f61272782612027565b915061273283612027565b925082820390508181111561274a576127496124fb565b5b92915050565b5f6060820190506127635f830186612212565b6127706020830185612203565b61277d6040830184612212565b949350505050565b7f496e76616c6964204944000000000000000000000000000000000000000000005f82015250565b5f6127b9600a83612386565b91506127c482612785565b602082019050919050565b5f6020820190508181035f8301526127e6816127ad565b9050919050565b7f416c7265616479206578656375746564000000000000000000000000000000005f82015250565b5f612821601083612386565b915061282c826127ed565b602082019050919050565b5f6020820190508181035f83015261284e81612815565b9050919050565b7f4f6e6c792070617965722063616e2065786563757465000000000000000000005f82015250565b5f612889601683612386565b915061289482612855565b602082019050919050565b5f6020820190508181035f8301526128b68161287d565b9050919050565b5f81905092915050565b50565b5f6128d55f836128bd565b91506128e0826128c7565b5f82019050919050565b5f6128f4826128ca565b9150819050919050565b7f4e617469766520746f6b656e207472616e73666572206661696c6564000000005f82015250565b5f612932601c83612386565b915061293d826128fe565b602082019050919050565b5f6020820190508181035f83015261295f81612926565b9050919050565b5f6040820190506129795f830185612203565b6129866020830184612212565b9392505050565b5f6040820190506129a05f830185612212565b6129ad6020830184612203565b9392505050565b7f4e6f74206f776e657200000000000000000000000000000000000000000000005f82015250565b5f6129e8600983612386565b91506129f3826129b4565b602082019050919050565b5f6020820190508181035f830152612a15816129dc565b9050919050565b7f4e6f742061646d696e00000000000000000000000000000000000000000000005f82015250565b5f612a50600983612386565b9150612a5b82612a1c565b602082019050919050565b5f6020820190508181035f830152612a7d81612a44565b9050919050565b7f496e636f7272656374206e6174697665206465706f73697400000000000000005f82015250565b5f612ab8601883612386565b9150612ac382612a84565b602082019050919050565b5f6020820190508181035f830152612ae581612aac565b9050919050565b828183375f83830152505050565b5f601f19601f8301169050919050565b5f612b158385612386565b9350612b22838584612aec565b612b2b83612afa565b840190509392505050565b5f604082019050612b495f830186612212565b8181036020830152612b5c818486612b0a565b9050949350505050565b7f5a65726f206164647265737300000000000000000000000000000000000000005f82015250565b5f612b9a600c83612386565b9150612ba582612b66565b602082019050919050565b5f6020820190508181035f830152612bc781612b8e565b9050919050565b7f496e76616c69642077616c6c65740000000000000000000000000000000000005f82015250565b5f612c02600e83612386565b9150612c0d82612bce565b602082019050919050565b5f6020820190508181035f830152612c2f81612bf6565b9050919050565b7f496e73756666696369656e74206e61746976652062616c616e636500000000005f82015250565b5f612c6a601b83612386565b9150612c7582612c36565b602082019050919050565b5f6020820190508181035f830152612c9781612c5e565b9050919050565b7f4e6174697665207472616e73666572206661696c6564000000000000000000005f82015250565b5f612cd2601683612386565b9150612cdd82612c9e565b602082019050919050565b5f6020820190508181035f830152612cff81612cc6565b9050919050565b5f81519050612d1481612030565b92915050565b5f60208284031215612d2f57612d2e611e85565b5b5f612d3c84828501612d06565b91505092915050565b7f496e73756666696369656e742045524332302062616c616e63650000000000005f82015250565b5f612d79601a83612386565b9150612d8482612d45565b602082019050919050565b5f6020820190508181035f830152612da681612d6d565b9050919050565b7f496e76616c6964206164647265737300000000000000000000000000000000005f82015250565b5f612de1600f83612386565b9150612dec82612dad565b602082019050919050565b5f6020820190508181035f830152612e0e81612dd5565b9050919050565b7f4e6174697665207769746864726177206661696c6564000000000000000000005f82015250565b5f612e49601683612386565b9150612e5482612e15565b602082019050919050565b5f6020820190508181035f830152612e7681612e3d565b905091905056fea26469706673582212204cd2bcb1e4c237b64f4b63ba8684a4f0fadc9adba928197ad97ed4856eec5ce364736f6c634300081c0033",
  "linkReferences": {},
  "deployedLinkReferences": {},
  "immutableReferences": {
    "326": [
      {
        "length": 32,
        "start": 3709
      },
      {
        "length": 32,
        "start": 5047
      },
      {
        "length": 32,
        "start": 6966
      },
      {
        "length": 32,
        "start": 7014
      }
    ]
  },
  "inputSourceName": "project/contracts/PayrollManager.sol",
  "buildInfoId": "solc-0_8_28-1bc983df4ad32db43e036e5e52f985fcf7f71581"
}