{
  "_format": "hh3-artifact-1",
  "contractName": "PayrollManager",
  "sourceName": "contracts/PayrollManager.sol",
  "abi": [
    {
      "inputs": [],
      "stateMutability": "nonpayable",
      "type": "constructor"
    },
    {
      "anonymous": false,
      "inputs": [
        {
          "indexed": true,
          "internalType": "address",
          "name": "admin",
          "type": "address"
        },
        {
          "indexed": false,
          "internalType": "bool",
          "name": "enabled",
          "type": "bool"
        }
      ],
      "name": "AdminUpdated",
      "type": "event"
    },
    {
      "anonymous": false,
      "inputs": [
        {
          "indexed": true,
          "internalType": "address",
          "name": "token",
          "type": "address"
        },
        {
          "indexed": false,
          "internalType": "uint256",
          "name": "amount",
          "type": "uint256"
        },
        {
          "indexed": false,
          "internalType": "string",
          "name": "note",
          "type": "string"
        }
      ],
      "name": "FundsMovedToYield",
      "type": "event"
    },
    {
      "anonymous": false,
      "inputs": [
        {
          "indexed": true,
          "internalType": "address",
          "name": "token",
          "type": "address"
        },
        {
          "indexed": false,
          "internalType": "uint256",
          "name": "amount",
          "type": "uint256"
        },
        {
          "indexed": false,
          "internalType": "string",
          "name": "note",
          "type": "string"
        }
      ],
      "name": "FundsRecalledFromYield",
      "type": "event"
    },
    {
      "anonymous": false,
      "inputs": [
        {
          "indexed": true,
          "internalType": "address",
          "name": "by",
          "type": "address"
        }
      ],
      "name": "Paused",
      "type": "event"
    },
    {
      "anonymous": false,
      "inputs": [
        {
          "indexed": true,
          "internalType": "uint256",
          "name": "id",
          "type": "uint256"
        },
        {
          "indexed": true,
          "internalType": "address",
          "name": "recipient",
          "type": "address"
        },
        {
          "indexed": false,
          "internalType": "uint256",
          "name": "amount",
          "type": "uint256"
        },
        {
          "indexed": false,
          "internalType": "address",
          "name": "token",
          "type": "address"
        }
      ],
      "name": "PaymentExecuted",
      "type": "event"
    },
    {
      "anonymous": false,
      "inputs": [
        {
          "indexed": true,
          "internalType": "address",
          "name": "payer",
          "type": "address"
        },
        {
          "indexed": true,
          "internalType": "address",
          "name": "recipient",
          "type": "address"
        },
        {
          "indexed": false,
          "internalType": "uint256",
          "name": "amount",
          "type": "uint256"
        },
        {
          "indexed": true,
          "internalType": "address",
          "name": "token",
          "type": "address"
        },
        {
          "indexed": false,
          "internalType": "uint256",
          "name": "chainId",
          "type": "uint256"
        }
      ],
      "name": "PaymentScheduled",
      "type": "event"
    },
    {
      "anonymous": false,
      "inputs": [
        {
          "indexed": true,
          "internalType": "address",
          "name": "by",
          "type": "address"
        }
      ],
      "name": "Unpaused",
      "type": "event"
    },
    {
      "inputs": [
        {
          "internalType": "address",
          "name": "_admin",
          "type": "address"
        }
      ],
      "name": "addAdmin",
      "outputs": [],
      "stateMutability": "nonpayable",
      "type": "function"
    },
    {
      "inputs": [
        {
          "internalType": "address",
          "name": "_token",
          "type": "address"
        },
        {
          "internalType": "address",
          "name": "_to",
          "type": "address"
        },
        {
          "internalType": "uint256",
          "name": "_amount",
          "type": "uint256"
        }
      ],
      "name": "emergencyWithdraw",
      "outputs": [],
      "stateMutability": "nonpayable",
      "type": "function"
    },
    {
      "inputs": [
        {
          "internalType": "uint256",
          "name": "_id",
          "type": "uint256"
        }
      ],
      "name": "executePayment",
      "outputs": [],
      "stateMutability": "nonpayable",
      "type": "function"
    },
    {
      "inputs": [
        {
          "internalType": "address",
          "name": "_token",
          "type": "address"
        }
      ],
      "name": "getBalance",
      "outputs": [
        {
          "internalType": "uint256",
          "name": "",
          "type": "uint256"
        }
      ],
      "stateMutability": "view",
      "type": "function"
    },
    {
      "inputs": [],
      "name": "getPaymentsCount",
      "outputs": [
        {
          "internalType": "uint256",
          "name": "",
          "type": "uint256"
        }
      ],
      "stateMutability": "view",
      "type": "function"
    },
    {
      "inputs": [
        {
          "internalType": "address",
          "name": "",
          "type": "address"
        }
      ],
      "name": "isAdmin",
      "outputs": [
        {
          "internalType": "bool",
          "name": "",
          "type": "bool"
        }
      ],
      "stateMutability": "view",
      "type": "function"
    },
    {
      "inputs": [
        {
          "internalType": "address",
          "name": "_token",
          "type": "address"
        },
        {
          "internalType": "address",
          "name": "_yieldWallet",
          "type": "address"
        },
        {
          "internalType": "uint256",
          "name": "_amount",
          "type": "uint256"
        },
        {
          "internalType": "string",
          "name": "_note",
          "type": "string"
        }
      ],
      "name": "moveFundsToYield",
      "outputs": [],
      "stateMutability": "nonpayable",
      "type": "function"
    },
    {
      "inputs": [],
      "name": "owner",
      "outputs": [
        {
          "internalType": "address",
          "name": "",
          "type": "address"
        }
      ],
      "stateMutability": "view",
      "type": "function"
    },
    {
      "inputs": [],
      "name": "pause",
      "outputs": [],
      "stateMutability": "nonpayable",
      "type": "function"
    },
    {
      "inputs": [],
      "name": "paused",
      "outputs": [
        {
          "internalType": "bool",
          "name": "",
          "type": "bool"
        }
      ],
      "stateMutability": "view",
      "type": "function"
    },
    {
      "inputs": [
        {
          "internalType": "uint256",
          "name": "",
          "type": "uint256"
        }
      ],
      "name": "payments",
      "outputs": [
        {
          "internalType": "address",
          "name": "payer",
          "type": "address"
        },
        {
          "internalType": "address",
          "name": "recipient",
          "type": "address"
        },
        {
          "internalType": "address",
          "name": "token",
          "type": "address"
        },
        {
          "internalType": "uint256",
          "name": "amount",
          "type": "uint256"
        },
        {
          "internalType": "uint256",
          "name": "chainId",
          "type": "uint256"
        },
        {
          "internalType": "bool",
          "name": "executed",
          "type": "bool"
        }
      ],
      "stateMutability": "view",
      "type": "function"
    },
    {
      "inputs": [
        {
          "internalType": "address",
          "name": "_token",
          "type": "address"
        },
        {
          "internalType": "uint256",
          "name": "_amount",
          "type": "uint256"
        },
        {
          "internalType": "string",
          "name": "_note",
          "type": "string"
        }
      ],
      "name": "recallFundsFromYield",
      "outputs": [],
      "stateMutability": "payable",
      "type": "function"
    },
    {
      "inputs": [
        {
          "internalType": "address",
          "name": "_admin",
          "type": "address"
        }
      ],
      "name": "removeAdmin",
      "outputs": [],
      "stateMutability": "nonpayable",
      "type": "function"
    },
    {
      "inputs": [
        {
          "internalType": "address",
          "name": "_recipient",
          "type": "address"
        },
        {
          "internalType": "address",
          "name": "_token",
          "type": "address"
        },
        {
          "internalType": "uint256",
          "name": "_amount",
          "type": "uint256"
        },
        {
          "internalType": "uint256",
          "name": "_chainId",
          "type": "uint256"
        }
      ],
      "name": "schedulePayment",
      "outputs": [],
      "stateMutability": "payable",
      "type": "function"
    },
    {
      "inputs": [],
      "name": "totalEscrowed",
      "outputs": [
        {
          "internalType": "uint256",
          "name": "",
          "type": "uint256"
        }
      ],
      "stateMutability": "view",
      "type": "function"
    },
    {
      "inputs": [],
      "name": "unpause",
      "outputs": [],
      "stateMutability": "nonpayable",
      "type": "function"
    },
    {
      "stateMutability": "payable",
      "type": "receive"
    }
  ],
  "bytecode": "0x60a060405234801561000f575f5ffd5b503373ffffffffffffffffffffffffffffffffffffffff1660808173ffffffffffffffffffffffffffffffffffffffff1681525050600160035f3373ffffffffffffffffffffffffffffffffffffffff1673ffffffffffffffffffffffffffffffffffffffff1681526020019081526020015f205f6101000a81548160ff0219169083151502179055506080516128b46100c65f395f8181610759015281816110bb0152818161183a015261186a01526128b45ff3fe6080604052600436106100f6575f3560e01c80638456cb5911610089578063cacf1e0e11610058578063cacf1e0e146102d6578063e63ea40814610300578063f8b2cb4f14610328578063f916823114610364576100fd565b80638456cb591461022d57806387d817891461024357806388691176146102845780638da5cb5b146102ac576100fd565b80635c975abb116100c55780635c975abb146101a35780635d72725a146101cd57806362d778ae146101e95780637048027514610205576100fd565b8063162a0cf8146101015780631785f53c1461012957806324d7806c146101515780633f4ba83a1461018d576100fd565b366100fd57005b5f5ffd5b34801561010c575f5ffd5b5061012760048036038101906101229190611bc4565b61038e565b005b348015610134575f5ffd5b5061014f600480360381019061014a9190611c49565b610757565b005b34801561015c575f5ffd5b5061017760048036038101906101729190611c49565b610913565b6040516101849190611c8e565b60405180910390f35b348015610198575f5ffd5b506101a1610930565b005b3480156101ae575f5ffd5b506101b7610a16565b6040516101c49190611c8e565b60405180910390f35b6101e760048036038101906101e29190611d08565b610a27565b005b61020360048036038101906101fe9190611d79565b610c91565b005b348015610210575f5ffd5b5061022b60048036038101906102269190611c49565b6110b9565b005b348015610238575f5ffd5b5061024161125c565b005b34801561024e575f5ffd5b5061026960048036038101906102649190611bc4565b611343565b60405161027b96959493929190611dfb565b60405180910390f35b34801561028f575f5ffd5b506102aa60048036038101906102a59190611e5a565b6113f3565b005b3480156102b7575f5ffd5b506102c0611838565b6040516102cd9190611ede565b60405180910390f35b3480156102e1575f5ffd5b506102ea61185c565b6040516102f79190611ef7565b60405180910390f35b34801561030b575f5ffd5b5061032660048036038101906103219190611f10565b611868565b005b348015610333575f5ffd5b5061034e60048036038101906103499190611c49565b611ac7565b60405161035b9190611ef7565b60405180910390f35b34801561036f575f5ffd5b50610378611b83565b6040516103859190611ef7565b60405180910390f35b5f5f9054906101000a900460ff16156103dc576040517f08c379a00000000000000000000000000000000000000000000000000000000081526004016103d390611fba565b60405180910390fd5b6001805490508110610423576040517f08c379a000000000000000000000000000000000000000000000000000000000815260040161041a90612022565b60405180910390fd5b5f6001828154811061043857610437612040565b5b905f5260205f2090600602019050806005015f9054906101000a900460ff1615610497576040517f08c379a000000000000000000000000000000000000000000000000000000000815260040161048e906120b7565b60405180910390fd5b6001816005015f6101000a81548160ff021916908315150217905550806003015460025f82825403925050819055505f73ffffffffffffffffffffffffffffffffffffffff16816002015f9054906101000a900473ffffffffffffffffffffffffffffffffffffffff1673ffffffffffffffffffffffffffffffffffffffff16036105f1575f816001015f9054906101000a900473ffffffffffffffffffffffffffffffffffffffff1673ffffffffffffffffffffffffffffffffffffffff16826003015460405161056890612102565b5f6040518083038185875af1925050503d805f81146105a2576040519150601f19603f3d011682016040523d82523d5f602084013e6105a7565b606091505b50509050806105eb576040517f08c379a00000000000000000000000000000000000000000000000000000000081526004016105e290612160565b60405180910390fd5b506106b8565b806002015f9054906101000a900473ffffffffffffffffffffffffffffffffffffffff1673ffffffffffffffffffffffffffffffffffffffff1663a9059cbb826001015f9054906101000a900473ffffffffffffffffffffffffffffffffffffffff1683600301546040518363ffffffff1660e01b815260040161067692919061217e565b6020604051808303815f875af1158015610692573d5f5f3e3d5ffd5b505050506040513d601f19601f820116820180604052508101906106b691906121cf565b505b806001015f9054906101000a900473ffffffffffffffffffffffffffffffffffffffff1673ffffffffffffffffffffffffffffffffffffffff16827f354f3c0c8efabe1a1a07cf222842b008ef284ac185e63bdf8245be8cd2d97f518360030154846002015f9054906101000a900473ffffffffffffffffffffffffffffffffffffffff1660405161074b9291906121fa565b60405180910390a35050565b7f000000000000000000000000000000000000000000000000000000000000000073ffffffffffffffffffffffffffffffffffffffff163373ffffffffffffffffffffffffffffffffffffffff16146107e5576040517f08c379a00000000000000000000000000000000000000000000000000000000081526004016107dc9061226b565b60405180910390fd5b60035f8273ffffffffffffffffffffffffffffffffffffffff1673ffffffffffffffffffffffffffffffffffffffff1681526020019081526020015f205f9054906101000a900460ff1661086e576040517f08c379a0000000000000000000000000000000000000000000000000000000008152600401610865906122d3565b60405180910390fd5b5f60035f8373ffffffffffffffffffffffffffffffffffffffff1673ffffffffffffffffffffffffffffffffffffffff1681526020019081526020015f205f6101000a81548160ff0219169083151502179055508073ffffffffffffffffffffffffffffffffffffffff167f235bc17e7930760029e9f4d860a2a8089976de5b381cf8380fc11c1d88a111335f6040516109089190611c8e565b60405180910390a250565b6003602052805f5260405f205f915054906101000a900460ff1681565b60035f3373ffffffffffffffffffffffffffffffffffffffff1673ffffffffffffffffffffffffffffffffffffffff1681526020019081526020015f205f9054906101000a900460ff166109b9576040517f08c379a00000000000000000000000000000000000000000000000000000000081526004016109b0906122d3565b60405180910390fd5b5f5f5f6101000a81548160ff0219169083151502179055503373ffffffffffffffffffffffffffffffffffffffff167f5db9ee0a495bf2e6ff9c91a7834c1ba4fdd244a5e8aa4e537bd38aeae4b073aa60405160405180910390a2565b5f5f9054906101000a900460ff1681565b60035f3373ffffffffffffffffffffffffffffffffffffffff1673ffffffffffffffffffffffffffffffffffffffff1681526020019081526020015f205f9054906101000a900460ff16610ab0576040517f08c379a0000000000000000000000000000000000000000000000000000000008152600401610aa7906122d3565b60405180910390fd5b5f5f9054906101000a900460ff1615610afe576040517f08c379a0000000000000000000000000000000000000000000000000000000008152600401610af590611fba565b60405180910390fd5b5f8311610b40576040517f08c379a0000000000000000000000000000000000000000000000000000000008152600401610b379061233b565b60405180910390fd5b5f73ffffffffffffffffffffffffffffffffffffffff168473ffffffffffffffffffffffffffffffffffffffff1603610bba57823414610bb5576040517f08c379a0000000000000000000000000000000000000000000000000000000008152600401610bac906123a3565b60405180910390fd5b610c39565b8373ffffffffffffffffffffffffffffffffffffffff166323b872dd3330866040518463ffffffff1660e01b8152600401610bf7939291906123c1565b6020604051808303815f875af1158015610c13573d5f5f3e3d5ffd5b505050506040513d601f19601f82011682018060405250810190610c3791906121cf565b505b8373ffffffffffffffffffffffffffffffffffffffff167fc4734cf4dd57c82c1e0e710a48a2b3967d2c5a8a7397bae5bbe2663c819dfd29848484604051610c8393929190612440565b60405180910390a250505050565b5f5f9054906101000a900460ff1615610cdf576040517f08c379a0000000000000000000000000000000000000000000000000000000008152600401610cd690611fba565b60405180910390fd5b5f73ffffffffffffffffffffffffffffffffffffffff168473ffffffffffffffffffffffffffffffffffffffff1603610d4d576040517f08c379a0000000000000000000000000000000000000000000000000000000008152600401610d44906124ba565b60405180910390fd5b5f8211610d8f576040517f08c379a0000000000000000000000000000000000000000000000000000000008152600401610d869061233b565b60405180910390fd5b5f73ffffffffffffffffffffffffffffffffffffffff168373ffffffffffffffffffffffffffffffffffffffff1603610e0957813414610e04576040517f08c379a0000000000000000000000000000000000000000000000000000000008152600401610dfb90612522565b60405180910390fd5b610e88565b8273ffffffffffffffffffffffffffffffffffffffff166323b872dd3330856040518463ffffffff1660e01b8152600401610e46939291906123c1565b6020604051808303815f875af1158015610e62573d5f5f3e3d5ffd5b505050506040513d601f19601f82011682018060405250810190610e8691906121cf565b505b60016040518060c001604052803373ffffffffffffffffffffffffffffffffffffffff1681526020018673ffffffffffffffffffffffffffffffffffffffff1681526020018573ffffffffffffffffffffffffffffffffffffffff1681526020018481526020018381526020015f1515815250908060018154018082558091505060019003905f5260205f2090600602015f909190919091505f820151815f015f6101000a81548173ffffffffffffffffffffffffffffffffffffffff021916908373ffffffffffffffffffffffffffffffffffffffff1602179055506020820151816001015f6101000a81548173ffffffffffffffffffffffffffffffffffffffff021916908373ffffffffffffffffffffffffffffffffffffffff1602179055506040820151816002015f6101000a81548173ffffffffffffffffffffffffffffffffffffffff021916908373ffffffffffffffffffffffffffffffffffffffff160217905550606082015181600301556080820151816004015560a0820151816005015f6101000a81548160ff02191690831515021790555050508160025f82825401925050819055508273ffffffffffffffffffffffffffffffffffffffff168473ffffffffffffffffffffffffffffffffffffffff163373ffffffffffffffffffffffffffffffffffffffff167fc51b1a49ed1ee87fb7cedb71d39aebabf50a6263f63e1d35df0a7b6547d38f1985856040516110ab929190612540565b60405180910390a450505050565b7f000000000000000000000000000000000000000000000000000000000000000073ffffffffffffffffffffffffffffffffffffffff163373ffffffffffffffffffffffffffffffffffffffff1614611147576040517f08c379a000000000000000000000000000000000000000000000000000000000815260040161113e9061226b565b60405180910390fd5b5f73ffffffffffffffffffffffffffffffffffffffff168173ffffffffffffffffffffffffffffffffffffffff16036111b5576040517f08c379a00000000000000000000000000000000000000000000000000000000081526004016111ac906125b1565b60405180910390fd5b600160035f8373ffffffffffffffffffffffffffffffffffffffff1673ffffffffffffffffffffffffffffffffffffffff1681526020019081526020015f205f6101000a81548160ff0219169083151502179055508073ffffffffffffffffffffffffffffffffffffffff167f235bc17e7930760029e9f4d860a2a8089976de5b381cf8380fc11c1d88a1113360016040516112519190611c8e565b60405180910390a250565b60035f3373ffffffffffffffffffffffffffffffffffffffff1673ffffffffffffffffffffffffffffffffffffffff1681526020019081526020015f205f9054906101000a900460ff166112e5576040517f08c379a00000000000000000000000000000000000000000000000000000000081526004016112dc906122d3565b60405180910390fd5b60015f5f6101000a81548160ff0219169083151502179055503373ffffffffffffffffffffffffffffffffffffffff167f62e78cea01bee320cd4e420270b5ea74000d11b0c9f74754ebdbfc544b05a25860405160405180910390a2565b60018181548110611352575f80fd5b905f5260205f2090600602015f91509050805f015f9054906101000a900473ffffffffffffffffffffffffffffffffffffffff1690806001015f9054906101000a900473ffffffffffffffffffffffffffffffffffffffff1690806002015f9054906101000a900473ffffffffffffffffffffffffffffffffffffffff1690806003015490806004015490806005015f9054906101000a900460ff16905086565b60035f3373ffffffffffffffffffffffffffffffffffffffff1673ffffffffffffffffffffffffffffffffffffffff1681526020019081526020015f205f9054906101000a900460ff1661147c576040517f08c379a0000000000000000000000000000000000000000000000000000000008152600401611473906122d3565b60405180910390fd5b5f5f9054906101000a900460ff16156114ca576040517f08c379a00000000000000000000000000000000000000000000000000000000081526004016114c190611fba565b60405180910390fd5b5f73ffffffffffffffffffffffffffffffffffffffff168473ffffffffffffffffffffffffffffffffffffffff1603611538576040517f08c379a000000000000000000000000000000000000000000000000000000000815260040161152f90612619565b60405180910390fd5b5f831161157a576040517f08c379a00000000000000000000000000000000000000000000000000000000081526004016115719061233b565b60405180910390fd5b5f73ffffffffffffffffffffffffffffffffffffffff168573ffffffffffffffffffffffffffffffffffffffff160361169e57824710156115f0576040517f08c379a00000000000000000000000000000000000000000000000000000000081526004016115e790612681565b60405180910390fd5b5f8473ffffffffffffffffffffffffffffffffffffffff168460405161161590612102565b5f6040518083038185875af1925050503d805f811461164f576040519150601f19603f3d011682016040523d82523d5f602084013e611654565b606091505b5050905080611698576040517f08c379a000000000000000000000000000000000000000000000000000000000815260040161168f906126e9565b60405180910390fd5b506117df565b5f8590505f8173ffffffffffffffffffffffffffffffffffffffff166370a08231306040518263ffffffff1660e01b81526004016116dc9190611ede565b602060405180830381865afa1580156116f7573d5f5f3e3d5ffd5b505050506040513d601f19601f8201168201806040525081019061171b919061271b565b905084811015611760576040517f08c379a000000000000000000000000000000000000000000000000000000000815260040161175790612790565b60405180910390fd5b8173ffffffffffffffffffffffffffffffffffffffff1663a9059cbb87876040518363ffffffff1660e01b815260040161179b92919061217e565b6020604051808303815f875af11580156117b7573d5f5f3e3d5ffd5b505050506040513d601f19601f820116820180604052508101906117db91906121cf565b5050505b8473ffffffffffffffffffffffffffffffffffffffff167f086d007541a16726a770d9cb404d89f6b36c424acfbd11be3711eb212bd4ab9484848460405161182993929190612440565b60405180910390a25050505050565b7f000000000000000000000000000000000000000000000000000000000000000081565b5f600180549050905090565b7f000000000000000000000000000000000000000000000000000000000000000073ffffffffffffffffffffffffffffffffffffffff163373ffffffffffffffffffffffffffffffffffffffff16146118f6576040517f08c379a00000000000000000000000000000000000000000000000000000000081526004016118ed9061226b565b60405180910390fd5b5f73ffffffffffffffffffffffffffffffffffffffff168273ffffffffffffffffffffffffffffffffffffffff1603611964576040517f08c379a000000000000000000000000000000000000000000000000000000000815260040161195b906127f8565b60405180910390fd5b5f73ffffffffffffffffffffffffffffffffffffffff168373ffffffffffffffffffffffffffffffffffffffff1603611a45575f8273ffffffffffffffffffffffffffffffffffffffff16826040516119bc90612102565b5f6040518083038185875af1925050503d805f81146119f6576040519150601f19603f3d011682016040523d82523d5f602084013e6119fb565b606091505b5050905080611a3f576040517f08c379a0000000000000000000000000000000000000000000000000000000008152600401611a3690612860565b60405180910390fd5b50611ac2565b8273ffffffffffffffffffffffffffffffffffffffff1663a9059cbb83836040518363ffffffff1660e01b8152600401611a8092919061217e565b6020604051808303815f875af1158015611a9c573d5f5f3e3d5ffd5b505050506040513d601f19601f82011682018060405250810190611ac091906121cf565b505b505050565b5f5f73ffffffffffffffffffffffffffffffffffffffff168273ffffffffffffffffffffffffffffffffffffffff1603611b0357479050611b7e565b8173ffffffffffffffffffffffffffffffffffffffff166370a08231306040518263ffffffff1660e01b8152600401611b3c9190611ede565b602060405180830381865afa158015611b57573d5f5f3e3d5ffd5b505050506040513d601f19601f82011682018060405250810190611b7b919061271b565b90505b919050565b60025481565b5f5ffd5b5f5ffd5b5f819050919050565b611ba381611b91565b8114611bad575f5ffd5b50565b5f81359050611bbe81611b9a565b92915050565b5f60208284031215611bd957611bd8611b89565b5b5f611be684828501611bb0565b91505092915050565b5f73ffffffffffffffffffffffffffffffffffffffff82169050919050565b5f611c1882611bef565b9050919050565b611c2881611c0e565b8114611c32575f5ffd5b50565b5f81359050611c4381611c1f565b92915050565b5f60208284031215611c5e57611c5d611b89565b5b5f611c6b84828501611c35565b91505092915050565b5f8115159050919050565b611c8881611c74565b82525050565b5f602082019050611ca15f830184611c7f565b92915050565b5f5ffd5b5f5ffd5b5f5ffd5b5f5f83601f840112611cc857611cc7611ca7565b5b8235905067ffffffffffffffff811115611ce557611ce4611cab565b5b602083019150836001820283011115611d0157611d00611caf565b5b9250929050565b5f5f5f5f60608587031215611d2057611d1f611b89565b5b5f611d2d87828801611c35565b9450506020611d3e87828801611bb0565b935050604085013567ffffffffffffffff811115611d5f57611d5e611b8d565b5b611d6b87828801611cb3565b925092505092959194509250565b5f5f5f5f60808587031215611d9157611d90611b89565b5b5f611d9e87828801611c35565b9450506020611daf87828801611c35565b9350506040611dc087828801611bb0565b9250506060611dd187828801611bb0565b91505092959194509250565b611de681611c0e565b82525050565b611df581611b91565b82525050565b5f60c082019050611e0e5f830189611ddd565b611e1b6020830188611ddd565b611e286040830187611ddd565b611e356060830186611dec565b611e426080830185611dec565b611e4f60a0830184611c7f565b979650505050505050565b5f5f5f5f5f60808688031215611e7357611e72611b89565b5b5f611e8088828901611c35565b9550506020611e9188828901611c35565b9450506040611ea288828901611bb0565b935050606086013567ffffffffffffffff811115611ec357611ec2611b8d565b5b611ecf88828901611cb3565b92509250509295509295909350565b5f602082019050611ef15f830184611ddd565b92915050565b5f602082019050611f0a5f830184611dec565b92915050565b5f5f5f60608486031215611f2757611f26611b89565b5b5f611f3486828701611c35565b9350506020611f4586828701611c35565b9250506040611f5686828701611bb0565b9150509250925092565b5f82825260208201905092915050565b7f50617573656400000000000000000000000000000000000000000000000000005f82015250565b5f611fa4600683611f60565b9150611faf82611f70565b602082019050919050565b5f6020820190508181035f830152611fd181611f98565b9050919050565b7f496e76616c6964204944000000000000000000000000000000000000000000005f82015250565b5f61200c600a83611f60565b915061201782611fd8565b602082019050919050565b5f6020820190508181035f83015261203981612000565b9050919050565b7f4e487b71000000000000000000000000000000000000000000000000000000005f52603260045260245ffd5b7f416c7265616479206578656375746564000000000000000000000000000000005f82015250565b5f6120a1601083611f60565b91506120ac8261206d565b602082019050919050565b5f6020820190508181035f8301526120ce81612095565b9050919050565b5f81905092915050565b50565b5f6120ed5f836120d5565b91506120f8826120df565b5f82019050919050565b5f61210c826120e2565b9150819050919050565b7f4e617469766520746f6b656e207472616e73666572206661696c6564000000005f82015250565b5f61214a601c83611f60565b915061215582612116565b602082019050919050565b5f6020820190508181035f8301526121778161213e565b9050919050565b5f6040820190506121915f830185611ddd565b61219e6020830184611dec565b9392505050565b6121ae81611c74565b81146121b8575f5ffd5b50565b5f815190506121c9816121a5565b92915050565b5f602082840312156121e4576121e3611b89565b5b5f6121f1848285016121bb565b91505092915050565b5f60408201905061220d5f830185611dec565b61221a6020830184611ddd565b9392505050565b7f4e6f74206f776e657200000000000000000000000000000000000000000000005f82015250565b5f612255600983611f60565b915061226082612221565b602082019050919050565b5f6020820190508181035f83015261228281612249565b9050919050565b7f4e6f742061646d696e00000000000000000000000000000000000000000000005f82015250565b5f6122bd600983611f60565b91506122c882612289565b602082019050919050565b5f6020820190508181035f8301526122ea816122b1565b9050919050565b7f5a65726f20616d6f756e740000000000000000000000000000000000000000005f82015250565b5f612325600b83611f60565b9150612330826122f1565b602082019050919050565b5f6020820190508181035f83015261235281612319565b9050919050565b7f496e636f7272656374206e6174697665206465706f73697400000000000000005f82015250565b5f61238d601883611f60565b915061239882612359565b602082019050919050565b5f6020820190508181035f8301526123ba81612381565b9050919050565b5f6060820190506123d45f830186611ddd565b6123e16020830185611ddd565b6123ee6040830184611dec565b949350505050565b828183375f83830152505050565b5f601f19601f8301169050919050565b5f61241f8385611f60565b935061242c8385846123f6565b61243583612404565b840190509392505050565b5f6040820190506124535f830186611dec565b8181036020830152612466818486612414565b9050949350505050565b7f496e76616c696420726563697069656e740000000000000000000000000000005f82015250565b5f6124a4601183611f60565b91506124af82612470565b602082019050919050565b5f6020820190508181035f8301526124d181612498565b9050919050565b7f496e636f7272656374206e617469766520746f6b656e20616d6f756e740000005f82015250565b5f61250c601d83611f60565b9150612517826124d8565b602082019050919050565b5f6020820190508181035f83015261253981612500565b9050919050565b5f6040820190506125535f830185611dec565b6125606020830184611dec565b9392505050565b7f5a65726f206164647265737300000000000000000000000000000000000000005f82015250565b5f61259b600c83611f60565b91506125a682612567565b602082019050919050565b5f6020820190508181035f8301526125c88161258f565b9050919050565b7f496e76616c69642077616c6c65740000000000000000000000000000000000005f82015250565b5f612603600e83611f60565b915061260e826125cf565b602082019050919050565b5f6020820190508181035f830152612630816125f7565b9050919050565b7f496e73756666696369656e74206e61746976652062616c616e636500000000005f82015250565b5f61266b601b83611f60565b915061267682612637565b602082019050919050565b5f6020820190508181035f8301526126988161265f565b9050919050565b7f4e6174697665207472616e73666572206661696c6564000000000000000000005f82015250565b5f6126d3601683611f60565b91506126de8261269f565b602082019050919050565b5f6020820190508181035f830152612700816126c7565b9050919050565b5f8151905061271581611b9a565b92915050565b5f602082840312156127305761272f611b89565b5b5f61273d84828501612707565b91505092915050565b7f496e73756666696369656e742045524332302062616c616e63650000000000005f82015250565b5f61277a601a83611f60565b915061278582612746565b602082019050919050565b5f6020820190508181035f8301526127a78161276e565b9050919050565b7f496e76616c6964206164647265737300000000000000000000000000000000005f82015250565b5f6127e2600f83611f60565b91506127ed826127ae565b602082019050919050565b5f6020820190508181035f83015261280f816127d6565b9050919050565b7f4e6174697665207769746864726177206661696c6564000000000000000000005f82015250565b5f61284a601683611f60565b915061285582612816565b602082019050919050565b5f6020820190508181035f8301526128778161283e565b905091905056fea2646970667358221220d6bc1f140818b03bd0d56081ebc0684d43de55679f5f593533b06704797473b364736f6c634300081c0033",
  "linkReferences": {},
  "deployedLinkReferences": {},
  "immutableReferences": {
    "102": [
      {
        "length": 32,
        "start": 1881
      },
      {
        "length": 32,
        "start": 4283
      },
      {
        "length": 32,
        "start": 6202
      },
      {
        "length": 32,
        "start": 6250
      }
    ]
  },
  "inputSourceName": "project/contracts/PayrollManager.sol",
  "buildInfoId": "solc-0_8_28-c0dd8a2160c030d882ae4dbdddfb69c9667881ff"
}